:100000000C9462000C948A000C948A000C948A0070
:100010000C948A000C948A000C948A000C948A0038
:100020000C948A000C948A000C948A000C948A0028
:100030000C948A000C948A000C948A000C948A0018
:100040000C942C050C948A000C94FA040C94D4049F
:100050000C948A000C948A000C948A000C948A00F8
:100060000C948A000C948A000000000024002700F1
:100070002A0000000000250028002B0000000000DE
:1000800023002600290004040404040404040202DA
:100090000202020203030303030301020408102007
:1000A0004080010204081020010204081020000012
:1000B0000008000201000003040700000000000027
:1000C0000000760511241FBECFEFD8E0DEBFCDBF04
:1000D00011E0A0E0B1E0E2EFF4E102C005900D9282
:1000E000A634B107D9F722E0A6E4B1E001C01D9221
:1000F000AC36B207E1F710E0C2E6D0E004C02197C9
:10010000FE010E94710AC136D107C9F70E94C305DA
:100110000C94770A0C9400008F929F92AF92BF923A
:10012000CF92DF92EF92FF920F931F93CF93E091C4
:100130006602F09167023196C0E000E010E098019D
:10014000CC24CA94DC2CEC2CF12C40E050E0BA0119
:100150008C2F90E0E817F907DCF1880F991F880FC2
:10016000991FDC01AF50BE4F17968D909D90AD90BA
:10017000BC901A978C149D04AE04BF0434F41796F7
:10018000CD90DD90ED90FC901A97DC01AF50BE4F02
:1001900017968D909D90AD90BC901A9708151905F3
:1001A0002A053B0534F417960D911D912D913C9134
:1001B0001A978F509E4FDC0117968D909D90AD90B1
:1001C000BC901A97480D591D6A1D7B1DCF5FC0CF8B
:1001D0004C195D096E097F09CB01BA01601B710BD7
:1001E000820B930BCF911F910F91FF90EF90DF90B7
:1001F000CF90BF90AF909F908F900895AF92BF9295
:10020000CF92DF92EF92FF920F931F93CF93DF93E2
:100210006C017B018B01040F151FEB015E01AE1811
:10022000BF08C017D10759F06991D601ED91FC9133
:100230000190F081E02DC6010995892B79F7C50160
:10024000DF91CF911F910F91FF90EF90DF90CF90B2
:10025000BF90AF900895FC01538D448D252F30E061
:10026000842F90E0821B930B541710F0CF960895C3
:1002700001970895FC01918D828D981761F0A28DF0
:10028000AE0FBF2FB11D5D968C91928D9F5F9F73B6
:10029000928F90E008958FEF9FEF0895FC01918D6C
:1002A000828D981731F0828DE80FF11D858D90E0D9
:1002B00008958FEF9FEF0895FC01918D228D892F76
:1002C00090E0805C9F4F821B91098F73992708955E
:1002D00084E591E00E945C0121E0892B09F420E093
:1002E000822F089580E090E0892B29F00E94680118
:1002F00081110C9400000895FC01A48DA80FB92F62
:10030000B11DA35ABF4F2C91848D90E001968F733D
:100310009927848FA689B7892C93A089B1898C915C
:10032000837080648C93938D848D981306C00288AB
:10033000F389E02D80818F7D80830895EF92FF9275
:100340000F931F93CF93DF93EC0181E0888F9B8DF8
:100350008C8D98131AC0E889F989808185FF15C0B2
:100360009FB7F894EE89FF896083E889F9898081D5
:100370008370806480839FBF81E090E0DF91CF91A4
:100380001F910F91FF90EF900895F62E0B8D10E0C6
:100390000F5F1F4F0F731127E02E8C8D8E110CC035
:1003A0000FB607FCFACFE889F989808185FFF5CF80
:1003B000CE010E947C01F1CFEB8DEC0FFD2FF11DE2
:1003C000E35AFF4FF0829FB7F8940B8FEA89FB89BD
:1003D00080818062CFCFCF93DF93EC01888D88231B
:1003E000B9F0AA89BB89E889F9898C9185FD03C098
:1003F000808186FD0DC00FB607FCF7CF8C9185FF7D
:10040000F2CF808185FFEDCFCE010E947C01E9CF44
:10041000DF91CF910895833081F028F4813099F0F5
:100420008230A9F008958730A9F08830C9F084306F
:10043000B1F4809180008F7D03C0809180008F7720
:1004400080938000089584B58F7784BD089584B526
:100450008F7DFBCF8091B0008F778093B00008959F
:100460008091B0008F7DF9CFCF93DF93282F30E0BC
:10047000F901E255FF4F8491F901E656FF4FD491FF
:10048000F901EA57FF4FC491CC23A1F081110E94DA
:100490000B02EC2FF0E0EE0FFF1FE458FF4FA59189
:1004A000B491EC91ED2381E090E009F480E0DF91DC
:1004B000CF91089580E090E0FACF1F93CF93DF9320
:1004C000282F30E0F901E255FF4F8491F901E656FB
:1004D000FF4FD491F901EA57FF4FC491CC23A9F003
:1004E000162F81110E940B02EC2FF0E0EE0FFF1F80
:1004F000EE58FF4FA591B4918FB7F894EC9111117C
:1005000008C0D095DE23DC938FBFDF91CF911F9180
:100510000895DE2BF8CFCF93DF9390E0FC01E656F1
:10052000FF4F24918A579F4FFC0184918823D1F07B
:1005300090E0880F991FFC01E859FF4FA591B491F5
:10054000FC01EE58FF4FC591D49161110EC09FB7C9
:10055000F8948C91E22FE0958E238C932881E223EE
:10056000E8839FBFDF91CF9108958FB7F894EC9106
:10057000E22BEC938FBFF6CFCF93DF93C1EFD1E0A7
:1005800061E088810E948B0260E089810E948B0279
:1005900081E08A8360E08881DF91CF910C945D02D5
:1005A0003FB7F8948091470190914801A09149018B
:1005B000B0914A0126B5A89B05C02F3F19F00196BE
:1005C000A11DB11D3FBFBA2FA92F982F8827BC01AD
:1005D000CD01620F711D811D911D42E0660F771FD5
:1005E000881F991F4A95D1F70895CF92DF92EF9215
:1005F000FF92CF938091F2010E9434028111B0C02A
:100600000E94D002C0904A02D0904B02E0904C026F
:10061000F0904D026C197D098E099F0960934E027E
:1006200070934F0280935002909351020E94D00227
:1006300060934A0270934B0280934C0290934D0258
:1006400010926002C0E0C12CD12C76018091F301A0
:1006500090E04796C817190609F0ECF461E0809124
:10066000F1010E945D02C83178F48091F2010E948C
:100670003402CC0CDD1CEE1CFF1C882329F08FEF0C
:10068000C81AD80AE80AF80A60E08091F1010E94CD
:100690005D02CF5FDBCF80914802909149022091AB
:1006A0006602309167022F5F3F4F8217930791F5E3
:1006B0001092490210924802C114D10480E8E80661
:1006C000F10401F1809160028F5F80936002E091FC
:1006D0004802F091490280E8E826EE0FFF1FEE0F76
:1006E000FF1FEF50FE4FC782D086E186F2868091D1
:1006F0005602882339F080915302823188F48F5F4B
:100700008093530280916002CF91FF90EF90DF9031
:10071000CF90089501969093490280934802CCCFE0
:100720000E948C002091540204C09595879577957E
:1007300067952A95D2F7609344027093450280939F
:10074000460290934702109253021092560281E0A3
:1007500080936102809160028F5F80936002D2CFAC
:1007600010926002CFCFCF92DF92EF92FF9280572C
:100770009E4F6C01F12CE12C2FB7F8948091500121
:1007800090915101A0915201B09153012FBF8C154E
:100790009D05AE05BF0518F40E94F502EDCF81E07E
:1007A0008093560210925302109264028FB7F8940D
:1007B000C0905001D0905101E0905201F09053014F
:1007C0008FBF8091620290916302C80ED91EE11C16
:1007D000F11C0E94F50290916502911114C09FB71F
:1007E000F8944091500150915101609152017091E3
:1007F00053019FBFC416D506E606F70620F481E034
:100800008093640202C0823021F710926102FF904F
:10081000EF90DF90CF9008958F929F92AF92BF920A
:10082000CF92DF92EF92FF924B015C010E94D002C7
:100830006B017C010E94D0026C197D098E099F0911
:10084000683E734081059105A8F321E0821A910862
:10085000A108B10888EEC80E83E0D81EE11CF11C87
:1008600081149104A104B10429F7FF90EF90DF9067
:10087000CF90BF90AF909F908F9008958FE00E948F
:1008800034029C0191E02115310509F490E0232BFD
:1008900039F480914B01882319F010924B0108958F
:1008A00090934B0180E00895FC0101900020E9F74E
:1008B0003197AF01481B590BBC0184E591E00C94C2
:1008C000FE008F929F92AF92BF920F931F93CF9390
:1008D000DF93CDB7DEB7A1970FB6F894DEBF0FBE9A
:1008E000CDBF19A2423008F44AE08E010F5D1F4FC0
:1008F000842E912CB12CA12CA50194010E944F0AA9
:10090000E62FB901CA01EA30F4F4E05DD801EE93B4
:100910008D01232B242B252B79F790E080E0109775
:1009200019F0CD010E945404A1960FB6F894DEBFD1
:100930000FBECDBFDF91CF911F910F91BF90AF90B0
:100940009F908F900895E95CE1CFBC01990F880BCF
:10095000990B4AE00C94610460E086E00E945D021D
:1009600060E087E00E945D0264EF71E080E090E06B
:100970000E940C040E94BC0280EA9FE00E94B30324
:1009800080E090E0AFE2B4E48093F4019093F5014D
:10099000A093F601B093F70183E290E00E94A504D2
:1009A00082E191E00C9454041F920F920FB60F92C3
:1009B00011242F933F934F935F936F937F938F9364
:1009C0009F93AF93BF93EF93FF9384E591E00E94D1
:1009D0007C01FF91EF91BF91AF919F918F917F919A
:1009E0006F915F914F913F912F910F900FBE0F909C
:1009F0001F9018951F920F920FB60F9211242F93EC
:100A00008F939F93EF93FF93E0916401F0916501C1
:100A10008081E0916A01F0916B0182FD1BC09081A1
:100A200080916D018F5F8F7320916E01821741F06D
:100A3000E0916D01F0E0EC5AFE4F958F80936D01CF
:100A4000FF91EF919F918F912F910F900FBE0F907B
:100A50001F9018958081F4CF1F920F920FB60F92BE
:100A600011242F933F938F939F93AF93BF938091C4
:100A7000500190915101A0915201B09153013091D8
:100A8000460123E0230F2D3758F50196A11DB11D16
:100A9000209346018093500190935101A0935201FD
:100AA000B09353018091470190914801A091490171
:100AB000B0914A010196A11DB11D80934701909309
:100AC0004801A0934901B0934A01BF91AF919F9112
:100AD0008F913F912F910F900FBE0F901F901895FF
:100AE00026E8230F0296A11DB11DD2CFE4E5F1E067
:100AF0001382128288EE93E0A0E0B0E084839583B5
:100B0000A683B78384E091E09183808385EC90E0B5
:100B10009587848784EC90E09787868780EC90E0C7
:100B2000918B808B81EC90E0938B828B82EC90E0B8
:100B3000958B848B86EC90E0978B868B118E128E32
:100B4000138E148EE1EFF1E01092490210924802E8
:100B500081E08093520284E0809354028093550296
:100B60008CE89AE09093630280936202109265028F
:100B700080E190E0909367028093660289E0818330
:100B80008AE080830895789484B5826084BD84B5BA
:100B9000816084BD85B5826085BD85B5816085BD78
:100BA00080916E00816080936E0010928100809130
:100BB00081008260809381008091810081608093B8
:100BC0008100809180008160809380008091B100DD
:100BD00084608093B1008091B00081608093B00008
:100BE00080917A00846080937A0080917A0082609C
:100BF00080937A0080917A00816080937A0080915E
:100C00007A00806880937A001092C100E0916401BC
:100C1000F091650182E08083E0916001F0916101D3
:100C20001082E0916201F09163018FEC8083109259
:100C30006C01E0916801F091690186E08083E091A8
:100C40006601F0916701808180618083E091660197
:100C5000F0916701808188608083E0916601F09166
:100C60006701808180688083E0916601F09167016F
:100C700080818F7D808384E191E00E9454048CE127
:100C800091E00E9454040E94BC0280ED97E00E9413
:100C9000B30380E090E1AFE2B4E48093F401909379
:100CA000F501A093F601B093F7018FE191E00E9466
:100CB00054048CE191E00E94540461E087E00E94BA
:100CC0008B0260E087E00E945D0261E086E00E94A6
:100CD0008B0260E086E00E945D0260E08FE00E948F
:100CE0008B028FE00E94340221E0892B09F420E07E
:100CF00020934B01C0E0D0E00E943E0481110E948D
:100D0000AC048FE00E943402892B89F060E087E018
:100D10000E945D0260E086E00E945D02209761F320
:100D20000E946801882341F30E940000E5CF0E94E1
:100D30003E0481110E94AC0484E190E00E94A5046D
:100D400082E191E00E9454040E94F5020E948C000E
:100D5000609368027093690280936A0290936B02B9
:100D60002091540204C095958795779567952A95AB
:100D7000D2F7C0904402D0904502E0904602F09035
:100D800047026C197D098E099F090E94280920914C
:100D9000F4013091F5014091F6015091F7010E9464
:100DA00085086B017C014B015C01AC019B010E9439
:100DB0004A0A882309F494C08AE391E00E9454040B
:100DC0000E948C00609368027093690280936A02AB
:100DD00090936B022091540204C095958795779566
:100DE00067952A95D2F7C0904402D0904502E090D2
:100DF0004602F09047026C197D098E099F090E94F6
:100E000028092091F4013091F5014091F6015091AB
:100E1000F7010E9485086B017C01C0924C01D092C1
:100E20004D01E0924E01F0924F0120E030E040E2AF
:100E300051E40E94D80987FD1AC020E030E048EC58
:100E400051E4C701B6010E94800887FF10C061E02D
:100E500087E00E945D0261E086E00E945D0282E11F
:100E600091E00E9454048AE090E00E94A50420E0F2
:100E700030E048EC51E460914C0170914D0180915B
:100E80004E0190914F010E94D80987FDBDC061E0DD
:100E900087E00E945D0261E086E00E945D0262E3FD
:100EA00070E080E090E00E940C0460E087E00E9427
:100EB0005D0260E086E00E945D0262E370E080E037
:100EC00090E00E940C0482E191E00E9454048AE0C8
:100ED00090E00E94A5048CE191E00E9454041ACF96
:100EE00026013701E89477F82FEF3FEF4FE75FE7F0
:100EF000C301B2010E944A0A81110DC02FEF3FEFDA
:100F00004FE75FE7C301B2010E94800818161CF486
:100F10008EE391E053CF2FEF3FEF4FE75FE4C70140
:100F2000B6010E94D80918161CF482E491E046CF5D
:100F30002FEF3FEF4FE75FECC701B6010E9480083B
:100F400087FDF3CF20E030E0A901C701B6010E9480
:100F5000800887FF0BC06DE284E591E00E949E014E
:100F600046015701B7FAB094B7F8B0942AE037EDCC
:100F700043EA5BE3C501B4010E9414084B015C0124
:100F80000E94F7086B017C010E9426099B01AC01BD
:100F9000C501B4010E9413084B015C014AE0C7017E
:100FA000B6010E9461046EE284E591E00E949E0118
:100FB00020E030E040E251E4C501B4010E94DD09C7
:100FC0004B015C010E94F7086B01F12CE12C4AE017
:100FD000C701B6010E946104C701B6010E9426093B
:100FE0009B01AC01C501B4010E94130820E030E070
:100FF00040E251E40E94DD090E94F70890E080E0A1
:101000004AE00E946104DCCE60E087E00E945D025D
:1010100060E086E00E945D0282E191E00E9454045B
:1010200090E080E056CF5058BB27AA270E942B089B
:101030000C949E090E94900938F00E94970920F0B4
:1010400039F49F3F19F426F40C948D090EF4E095C1
:10105000E7FB0C948709E92F0E94AF0958F3BA17F0
:10106000620773078407950720F079F4A6F50C94BE
:10107000D1090EF4E0950B2EBA2FA02D0B01B9016A
:1010800090010C01CA01A0011124FF27591B99F0FE
:10109000593F50F4503E68F11A16F040A22F232F0A
:1010A000342F4427585FF3CF469537952795A7955A
:1010B000F0405395C9F77EF41F16BA0B620B730B01
:1010C000840BBAF09150A1F0FF0FBB1F661F771F72
:1010D000881FC2F70EC0BA0F621F731F841F48F427
:1010E000879577956795B795F7959E3F08F0B0CFB0
:1010F0009395880F08F09927EE0F97958795089597
:101100000E94630908F481E008950E9499080C94F4
:101110009E090E94970958F00E94900940F029F416
:101120005F3F29F00C94870951110C94D2090C945B
:101130008D090E94AF0968F39923B1F3552391F308
:10114000951B550BBB27AA2762177307840738F036
:101150009F5F5F4F220F331F441FAA1FA9F335D093
:101160000E2E3AF0E0E832D091505040E695001C47
:10117000CAF72BD0FE2F29D0660F771F881FBB1F01
:10118000261737074807AB07B0E809F0BB0B802DDF
:10119000BF01FF2793585F4F3AF09E3F510578F00B
:1011A0000C9487090C94D2095F3FE4F3983ED4F382
:1011B000869577956795B795F7959F5FC9F7880FDF
:1011C000911D9695879597F90895E1E0660F771F31
:1011D000881FBB1F621773078407BA0720F0621BC2
:1011E000730B840BBA0BEE1F88F7E09508950E94ED
:1011F000B70988F09F5798F0B92F9927B751B0F0E9
:10120000E1F0660F771F881F991F1AF0BA95C9F78A
:1012100014C0B13091F00E94D109B1E008950C944E
:10122000D109672F782F8827B85F39F0B93FCCF301
:10123000869577956795B395D9F73EF49095809507
:10124000709561957F4F8F4F9F4F0895E89409C027
:1012500097FB3EF490958095709561957F4F8F4FE9
:101260009F4F9923A9F0F92F96E9BB279395F695FF
:10127000879577956795B795F111F8CFFAF4BB0F7D
:1012800011F460FF1BC06F5F7F4F8F4F9F4F16C0E1
:10129000882311F096E911C0772321F09EE8872F6B
:1012A000762F05C0662371F096E8862F70E060E027
:1012B0002AF09A95660F771F881FDAF7880F9695A0
:1012C000879597F90895990F0008550FAA0BE0E844
:1012D000FEEF16161706E807F907C0F012161306F8
:1012E000E407F50798F0621B730B840B950B39F438
:1012F0000A2661F0232B242B252B21F408950A269E
:1013000009F4A140A6958FEF811D811D089597F9DD
:101310009F6780E870E060E008959FEF80EC08959B
:1013200000240A94161617061806090608950024C4
:101330000A9412161306140605060895092E03943E
:10134000000C11F4882352F0BB0F40F4BF2B11F4B2
:1013500060FF04C06F5F7F4F8F4F9F4F089557FD11
:101360009058440F551F59F05F3F71F04795880F13
:1013700097FB991F61F09F3F79F0879508951216AA
:1013800013061406551FF2CF4695F1DF08C0161656
:1013900017061806991FF1CF869571056105089407
:1013A0000895E894BB2766277727CB0197F908951E
:1013B0000E94630908F48FEF08950E94F0090C94CD
:1013C0009E090E94900938F00E94970920F0952309
:1013D00011F00C9487090C948D0911240C94D209F6
:1013E0000E94AF0970F3959FC1F3950F50E0551F10
:1013F000629FF001729FBB27F00DB11D639FAA276A
:10140000F00DB11DAA1F649F6627B00DA11D661FB8
:10141000829F2227B00DA11D621F739FB00DA11DD9
:10142000621F839FA00D611D221F749F3327A00D93
:10143000611D231F849F600D211D822F762F6A2F2F
:1014400011249F5750409AF0F1F088234AF0EE0F94
:10145000FF1FBB1F661F771F881F91505040A9F7C1
:101460009E3F510580F00C9487090C94D2095F3F90
:10147000E4F3983ED4F3869577956795B795F795FD
:10148000E7959F5FC1F7FE2B880F911D9695879575
:1014900097F908950E946309880B990B0895A1E2BA
:1014A0001A2EAA1BBB1BFD010DC0AA1FBB1FEE1FDE
:1014B000FF1FA217B307E407F50720F0A21BB30B29
:1014C000E40BF50B661F771F881F991F1A9469F7A5
:1014D00060957095809590959B01AC01BD01CF0101
:1014E0000895EE0FFF1F0590F491E02D0994F894F4
:0214F000FFCF2C
:1014F200000000009E01FE002B01EB015C013A019D
:101502004E012000576169742E2E2E000D0A0053E1
:10151200746172747570202B207461726520697316
:1015220020636F6D706C657465006E616E00696E2C
:0615320066006F76660002
:00000001FF
